{
  "_format": "hh-sol-artifact-1",
  "contractName": "DataStored",
  "sourceName": "contracts/new.sol",
  "abi": [
    {
      "inputs": [
        {
          "internalType": "string",
          "name": "initMessage",
          "type": "string"
        }
      ],
      "stateMutability": "nonpayable",
      "type": "constructor"
    },
    {
      "anonymous": false,
      "inputs": [
        {
          "indexed": true,
          "internalType": "address",
          "name": "sender",
          "type": "address"
        },
        {
          "indexed": false,
          "internalType": "string",
          "name": "data",
          "type": "string"
        }
      ],
      "name": "DataStoredEvent",
      "type": "event"
    },
    {
      "inputs": [],
      "name": "getData",
      "outputs": [
        {
          "internalType": "string",
          "name": "",
          "type": "string"
        }
      ],
      "stateMutability": "view",
      "type": "function"
    },
    {
      "inputs": [
        {
          "internalType": "string",
          "name": "newData",
          "type": "string"
        }
      ],
      "name": "setData",
      "outputs": [],
      "stateMutability": "nonpayable",
      "type": "function"
    }
  ],
  "bytecode": "0x60806040523480156200001157600080fd5b5060405162000860380380620008608339818101604052810190620000379190620002a4565b80600090805190602001906200004f92919062000057565b50506200035a565b828054620000659062000324565b90600052602060002090601f016020900481019282620000895760008555620000d5565b82601f10620000a457805160ff1916838001178555620000d5565b82800160010185558215620000d5579182015b82811115620000d4578251825591602001919060010190620000b7565b5b509050620000e49190620000e8565b5090565b5b8082111562000103576000816000905550600101620000e9565b5090565b6000604051905090565b600080fd5b600080fd5b600080fd5b600080fd5b6000601f19601f8301169050919050565b7f4e487b7100000000000000000000000000000000000000000000000000000000600052604160045260246000fd5b620001708262000125565b810181811067ffffffffffffffff8211171562000192576200019162000136565b5b80604052505050565b6000620001a762000107565b9050620001b5828262000165565b919050565b600067ffffffffffffffff821115620001d857620001d762000136565b5b620001e38262000125565b9050602081019050919050565b60005b8381101562000210578082015181840152602081019050620001f3565b8381111562000220576000848401525b50505050565b60006200023d6200023784620001ba565b6200019b565b9050828152602081018484840111156200025c576200025b62000120565b5b62000269848285620001f0565b509392505050565b600082601f8301126200028957620002886200011b565b5b81516200029b84826020860162000226565b91505092915050565b600060208284031215620002bd57620002bc62000111565b5b600082015167ffffffffffffffff811115620002de57620002dd62000116565b5b620002ec8482850162000271565b91505092915050565b7f4e487b7100000000000000000000000000000000000000000000000000000000600052602260045260246000fd5b600060028204905060018216806200033d57607f821691505b60208210811415620003545762000353620002f5565b5b50919050565b6104f6806200036a6000396000f3fe608060405234801561001057600080fd5b50600436106100365760003560e01c80633bc5de301461003b57806347064d6a14610059575b600080fd5b610043610075565b60405161005091906102ab565b60405180910390f35b610073600480360381019061006e9190610416565b610107565b005b6060600080546100849061048e565b80601f01602080910402602001604051908101604052809291908181526020018280546100b09061048e565b80156100fd5780601f106100d2576101008083540402835291602001916100fd565b820191906000526020600020905b8154815290600101906020018083116100e057829003601f168201915b5050505050905090565b806000908051906020019061011d92919061016f565b503373ffffffffffffffffffffffffffffffffffffffff167f2a70e9b5a76671a6d8a0fc2d5b9d15566489226dcb62a6d309773aeb7293559f8260405161016491906102ab565b60405180910390a250565b82805461017b9061048e565b90600052602060002090601f01602090048101928261019d57600085556101e4565b82601f106101b657805160ff19168380011785556101e4565b828001600101855582156101e4579182015b828111156101e35782518255916020019190600101906101c8565b5b5090506101f191906101f5565b5090565b5b8082111561020e5760008160009055506001016101f6565b5090565b600081519050919050565b600082825260208201905092915050565b60005b8381101561024c578082015181840152602081019050610231565b8381111561025b576000848401525b50505050565b6000601f19601f8301169050919050565b600061027d82610212565b610287818561021d565b935061029781856020860161022e565b6102a081610261565b840191505092915050565b600060208201905081810360008301526102c58184610272565b905092915050565b6000604051905090565b600080fd5b600080fd5b600080fd5b600080fd5b7f4e487b7100000000000000000000000000000000000000000000000000000000600052604160045260246000fd5b61032382610261565b810181811067ffffffffffffffff82111715610342576103416102eb565b5b80604052505050565b60006103556102cd565b9050610361828261031a565b919050565b600067ffffffffffffffff821115610381576103806102eb565b5b61038a82610261565b9050602081019050919050565b82818337600083830152505050565b60006103b96103b484610366565b61034b565b9050828152602081018484840111156103d5576103d46102e6565b5b6103e0848285610397565b509392505050565b600082601f8301126103fd576103fc6102e1565b5b813561040d8482602086016103a6565b91505092915050565b60006020828403121561042c5761042b6102d7565b5b600082013567ffffffffffffffff81111561044a576104496102dc565b5b610456848285016103e8565b91505092915050565b7f4e487b7100000000000000000000000000000000000000000000000000000000600052602260045260246000fd5b600060028204905060018216806104a657607f821691505b602082108114156104ba576104b961045f565b5b5091905056fea2646970667358221220a56afedbcd54275b9dba6762c60fe399bb1e973e62482ebb6e2b0851d28290b764736f6c63430008090033",
  "linkReferences": {},
  "deployedLinkReferences": {}
}